:100D690053636F72653A00486967682053636F720D
:030D7900653A00D8
:100B7100C183C102C101C180C106C105C1040221F5
:100B810000000223000001258201260014272020F5
:100B91002020202020202020202020202020202054
:100BA1002020143B20202020202020202020202035
:080BB10020202020202020203C
:100BF600E4F5A0C282C280C2817F38FE120D571270
:100C06000CD67F067E00120D57120CD67F0C7E0086
:100C1600120D57120CD67F017E00120D57120CD6FC
:070C26007F807E00020D57E4
:040CD6007F047E0019
:100CDA00E4FDFCC3ED9FEC9E5015E4FBFA0BBB0050
:0F0CEA00010ABA01F8BB7EF50DBD00010C80E4D4
:010CF90022D8
:1008B0008E128F138B148A1589167C277D101209CE
:1008C000A3EF243012096FAE12AF137C277D1012F4
:1008D00009A37E037FE8CFCDCFCECCCE1209A3EF04
:1008E0002430AB14AA15A916900001120981AE128A
:1008F000AF137C037DE81209A37E007F64CFCDCFC8
:10090000CECCCE1209A3EF2430AB14AA15A91690B1
:100910000002120981AE12AF137C007D641209A39C
:100920007E007F0ACFCDCFCECCCE1209A3EF2430EC
:10093000AB14AA15A916900003120981AE12AF13C9
:100940007C007D0A1209A3ED2430AB14AA15A91668
:0609500090000402098181
:050D5200FFE43583FE03
:100D5700C280C281D2828FA07F017E00120CDAC2CC
:020D67008222E6
:090D37007F827E00120D577F44FB
:100D4000D280C281D2828FA07F017E00120CDAC2D3
:020D50008222FD
:100CB1008B128A138914AB12AA13A9141209566054
:100CC100130514E5147002051314F9120956FF12E5
:050CD1000D4080E2224D
:100D7C00758920758DF3759850D2ACD2AFD28E2276
:100C2D00AF99EF249F601624F07025120D377FC207
:100C3D007E00120D577F20120D40D203227FC2126B
:100C4D000D397F827E00120D577F20120D40C20399
:010C5D002274
:03002300020C5E6E
:100C5E00C0E0C0D075D000C002C003C004C005C043
:100C6E0006C007309802C298120C2DD007D006D0BD
:0C0C7E0005D004D003D002D0D0D0E0326A
:100CFA007F807E00120D577BFF7A0D7969120CB145
:100D0A007FC07E00120D577BFF7A0D7970020CB1FD
:100A840075372075382A75392A120BF6120D7C1227
:100A94000D377FE87E03120CDA30030375258220BC
:100AA40003037525C2AF25120D390522E522700214
:100AB4000521E52664037005F526120800120C8A48
:100AC400052674A72525F8E6642A600A747B252583
:100AD400F8E6642A702DC2ACE522152270021521B5
:100AE400D3E5229524E521952340068521238522FB
:100AF40024120B0C120D1AE4F521F522F526120826
:080B040000D2AC120BBA808A8A
:100B0C007F017E00120D57120CFA7B007A007908D7
:100B1C00AF22AE211208B07B007A00790DAF24AE63
:100B2C00231208B0900000E582248B120D52AF8284
:100B3C0074082FF8E6FF120D40E58224CB120D52FB
:100B4C00AF82740D2FF8E6FF120D40A3E582640509
:100B5C00458370D37525827FB87E0B120CDA7F012A
:050B6C007E00020D57A0
:100D1A00E4FFFE74272FF87620743B2FF876200F15
:0C0D2A00BF00010EEF64144E70E9D2030C
:010D3600229A
:10080000A2019204A204E433FFA2029205A205E42D
:100810003325E02FFFA200300201B39206A206E4C6
:100820003325E025E02FFFA2049200A2059201A249
:1008300006920214B40700507690084775F003A49E
:10084000C58325F0C5837302085C02086402086C46
:1008500002087402087F02089202089D753720750D
:10086000382A8034754B20754C2A800E75372075D8
:10087000382A802F754B20754C20754D2A800975BC
:100880004B20754C2A754D207537207538207539E9
:10089000202275372075382075392A800975372050
:0F08A000753820753920754B20754C20754D200B
:0108AF002226
:100C8A00E4FFFE74282FF8E6FD74272FF8A60574F2
:100C9A003C2FF8E6FD743B2FF8A6050FBF00010EA6
:060CAA00EF64134E70DD43
:010CB0002221
:100BBA00900000E5822480120D52AF8274272FF82C
:100BCA00E6FF120D40E58224C0120D52AF82743B3B
:100BDA002FF8E6FF120D40A3E5826410458370D317
:0C0BEA00AF257E00120D577F44020D4025
:030000000209F8FA
:0C09F800787FE4F6D8FD75814E020A3FBE
:100A0400020A84E493A3F8E493A34003F68001F27A
:100A140008DFF48029E493A3F85407240CC8C333F3
:100A2400C4540F4420C8834004F456800146F6DFC2
:100A3400E4800B0102040810204080900B71E47ED6
:100A4400019360BCA3FF543F30E509541FFEE493B7
:100A5400A360010ECF54C025E060A840B8E493A37E
:100A6400FAE493A3F8E493A3C8C582C8CAC583CAA9
:100A7400F0A3C8C582C8CAC583CADFE9DEE780BE61
:010BB900003B
:10095600BB010689828A83E0225002E722BBFE029F
:09096600E32289828A83E49322D2
:10096F00BB010689828A83F0225002F722BBFE0167
:02097F00F32261
:10098100F8BB010DE58229F582E5833AF583E8F0AC
:10099100225006E92582C8F622BBFE05E92582C858
:0209A100F22240
:1009A300BC000BBE0029EF8DF084FFADF022E4CC38
:1009B300F875F008EF2FFFEE33FEEC33FCEE9DEC01
:1009C300984005FCEE9DFE0FD5F0E9E4CEFD22ED47
:1009D300F8F5F0EE8420D21CFEADF075F008EF2F91
:1009E300FFED33FD4007985006D5F0F222C398FD82
:0509F3000FD5F0EA221F
:00000001FF
